:020000040800F2
:1000000000C00120F1240008E5230008EB230008CC
:10001000F1230008F7230008FD230008000000007A
:1000200000000000000000000000000003240008A1
:1000300011240008000000001F2400082D240008DF
:1000400041250008412500084125000841250008F8
:1000500041250008412500084125000841250008E8
:1000600041250008392400084125000849240008DA
:100070005D240008412500084125000841250008AD
:1000800041250008412500084125000841250008B8
:100090004125000841250008412500087124000879
:1000A0004125000841250008412500084125000898
:1000B0004125000841250008412500084125000888
:1000C00041250008812400089524000841250008E6
:1000D0004125000841250008412500084125000868
:1000E000A9240008412500084125000841250008F1
:1000F0004125000841250008412500084125000848
:100100000000000041250008000000004125000813
:100110004125000841250008B924000841250008B0
:100120004125000841250008412500084125000817
:1001300041250008000000000000000041250008E3
:1001400041250008412500080000000000000000D3
:10015000000000000000000000000000000000009F
:100160000000000000000000000000004125000821
:1001700041250008412500084125000841250008C7
:100180004125000841250008000000000000000093
:100190000000000000000000412500084125000883
:1001A0000000000000000000412500084125000873
:1001B0004125000841250008412500084125000887
:1001C0004125000841250008412500084125000877
:0801D00041250008412500084B
:1001D80010B5054C237833B9044B13B10448AFF379
:1001E80000800123237010BD1400002000000000CF
:1001F8004C87000808B5034B1BB103490348AFF30C
:10020800008008BD00000000180000204C8700088E
:1002180080B582B000AF7860786804F0E3FC00BF76
:100228000837BD4680BD000080B582B000AF786059
:100238000B46FB7013463B80FB78002B0DD14FF02B
:10024800007309228C49786804F01AFC00F0E0FC7D
:1002580002460B46894B1A60C6E2894BDB7A0A2BA9
:100268001CD1874B9A7A874B9A72864B0A22DA728C
:10027800844B00221A73834B00225A73814B00224D
:100288009A73804B0022DA737E4B00221A747D4BDE
:10029800FF225A747B4BFF229A749FE2784BDB7AD9
:1002A8000B2B34D1764B9A7A764B9A72754B0B227C
:1002B800DA72744B00221A73724B00225A73714B14
:1002C80000229A736F4B0022DA736E4B00221A7465
:1002D8006C4BFF225A746A4B9B7A012B03D0684BF4
:1002E8009B7A032B03D1674BFF229A7476E2644B07
:1002F8009B7A022B03D0624B9B7A042B03D1614B70
:10030800FF229A746AE25F4B00229A7466E25C4BA1
:10031800DB7A002B40F09180594B9B7A012B03D05C
:10032800574B9B7A032B0DD1574BB3F90230002B57
:1003380008DB554B5B78012B04D1534B5B68514A62
:10034800536059E04E4B9B7A012B03D04C4B9B7A60
:10035800032B11D14C4BB3F90230002B0CDC4A4B68
:100368005B78012B08D1484BD3ED017AF1EE677A1F
:10037800444BC3ED017A3FE0414B9B7A022B03D0FB
:100388003F4B9B7A042B0DD1404BB3F90230002B25
:1003980008DB3E4B5B78012B04D13C4B5B68394A48
:1003A800536029E0364B9B7A022B03D0344B9B7A5F
:1003B800042B11D1354BB3F90230002B0CDC334B35
:1003C8005B78012B08D1314BD3ED017AF1EE677AD6
:1003D8002C4BC3ED017A0FE0294B9B7A012B03D0FC
:1003E800274B9B7A032B07D1274B5B78022B03D132
:1003F800274B9B68234A5360214B9A7A214B9A7268
:10040800204B0022DA721F4B00221A731D4B002268
:100418005A731C4B00229A731A4B1A79194BDA73C8
:10042800184B5A79174B1A74164B9A79154B5A74FC
:10043800144BDA79134B9A74D0E1114BDB7A012B08
:1004480040F0A2800E4B9B7A012B03D00C4B9B7A79
:10045800032B21D10F4BD3ED007AF5EEC07AF1EEE4
:1004680010FA19DB084B5B78012B15D1064B5B683A
:10047800044A536067E000BF3A0000209000002063
:1004880030000020440000205800002064000020B4
:1004980070000020800300208C4B9B7A012B03D036
:1004A8008A4B9B7A032B14D1894BD3ED007AF5EE56
:1004B800C07AF1EE10FA0CD8864B5B78012B08D184
:1004C800844BD3ED017AF1EE677A834BC3ED017A61
:1004D80039E07E4B9B7A022B03D07C4B9B7A042B12
:1004E80010D17E4BD3ED007AF5EEC07AF1EE10FA1A
:1004F80008DB7B4B5B78012B04D1794B5B68764A30
:10050800536020E0714B9B7A022B03D06F4B9B7A90
:10051800042B14D1714BD3ED007AF5EEC07AF1EECD
:1005280010FA0CD86E4B5B78012B08D16C4BD3EDCD
:10053800017AF1EE677A684BC3ED017A03E0664B06
:100548004FF000025A60614B9A7A634B9A72624B81
:100558000022DA72604B00221A735F4B00225A7332
:100568005D4B00229A735C4B1A795B4BDA735A4BDA
:100578005A79594B1A74584B9A79574B5A74564BA7
:10058800DA79554B9A7429E1504BDB7A022B31D139
:100598004E4B9A7A504B9A724F4B0A22DA724E4B54
:1005A80000221A734C4B00225A734B4B00229A7349
:1005B800494B0022DA73484B00221A74464BFF223B
:1005C8005A74424B9B7A012B03D0404B9B7A032BE6
:1005D80003D1414BFF229A7400E13C4B9B7A022BDA
:1005E80004D03A4B9B7A042B40F0F8803A4BFF2218
:1005F8009A74F3E0354BDB7A032B31D1334B9A7A7B
:10060800354B9A72344B0A22DA72334B00221A7332
:10061800314B00225A73304B00229A732E4B002222
:10062800DA732D4B00221A742B4BFF225A74274B76
:100638009B7A012B03D0254B9B7A032B03D1264BA6
:10064800FF229A74CAE0214B9B7A022B04D01F4BDD
:100658009B7A042B40F0C2801F4BFF229A74BDE0A6
:100668001A4BDB7A042B3DD1184B9A7A1A4B9A72A3
:10067800194B0A22DA72184B00221A73164B002201
:100688005A73154B00229A73134B0022DA73124BDC
:1006980000221A74104BFF225A740C4B9B7A012BC0
:1006A80003D00A4B9B7A032B03D10B4BFF229A747E
:1006B80094E0064B9B7A022B04D0044B9B7A042BC4
:1006C80040F08C80044BFF229A7487E030000020B1
:1006D800800300205800002044000020B4030020BC
:1006E80064000020424BDB7A082B27D1414B1B7852
:1006F800082B23D13E4B9A7A3F4B9A723E4B0822E5
:10070800DA723D4B00221A733B4B00225A733A4B64
:1007180000229A73384B0022DA73374B00221A747E
:10072800364BB3F90020344B1A80334B1A78324BCE
:100738005A74314B5A78304B9A744FE02C4B9B7A51
:10074800092B27D12B4B1B78092B23D1284B9A7ABD
:10075800294B9A72284B0922DA72274B00221A7306
:10076800254B00225A73244B00229A73224B0022F5
:10077800DA73214B00221A74214BB3F900201E4B67
:100788001A801D4B1A781C4B5A741B4B5A781A4BFB
:100798009A7423E0164B9B7A052B1FD1154B1B78B7
:1007A800052B1BD1124B9A7A134B9A72124B0522C6
:1007B800DA72114B00221A730F4B00225A730E4B38
:1007C80000229A730C4B0022DA730B4B00221A7426
:1007D800094BFF225A74084BFF229A7400230922FE
:1007E8000849786804F09AF800BF0837BD4680BD0C
:1007F800300000207F0000204400002086000020F8
:10080800880000204E00002080B582B000AF7860DC
:100818004FF0807309220449786804F07FF800BF1C
:100828000837BD4680BD00BF4E00002080B483B0AD
:1008380000AF7860854BDB7A0A2B1AD1834B9B7A01
:10084800012B03D0814B9B7A032B04D17F4B9A7CDD
:100858007F4B5A7095E17D4B9B7A022B04D07B4BE2
:100868009B7A042B40F08D81784B9A7C794B5A7097
:1008780087E1764BDB7A0B2B2CD1744B5A7C734B6C
:100888001A72724B9A7C714B5A72704B9B7A012B7D
:1008980003D06E4B9B7A032B09D16C4B1B8907EE57
:1008A800903AF8EE677A6C4BC3ED037A69E1674BCF
:1008B8009B7A022B04D0654B9B7A042B40F0618114
:1008C800624B1B8907EE903AF8EE677A634BC3EDEB
:1008D800037A56E15D4BDB7A002B27D1604B00226F
:1008E8001A705A4B5A7C594B1A70584B9A7C574B72
:1008F8005A70564B9B7A012B03D0544B9B7A032B8F
:1009080005D1524BB3F90020514B5A8039E14F4B76
:100918009B7A022B04D04D4B9B7A042B40F03181FB
:100928004A4BB3F900204B4B5A802AE1474BDB7AFC
:10093800012B3BD1454BDA7B444B1A71434B1A7C54
:10094800424B5A71414B5A7C404B9A713F4B9A7CAF
:100958003E4BDA713D4B9B7A012B03D03B4B9B7A84
:10096800032B0BD13A4B5B78012B07D1374B5B68D4
:100978003C4A13603A4B01221A7002E1334B9B7ACE
:10098800022B03D0314B9B7A042B0BD1314B5B7874
:10099800012B07D12D4B5B68334A1360304B012282
:1009A8001A70EEE02E4B00221A70EAE0274BDB7A31
:1009B800022B2AD1254BDA7B244B1A71234B1A7C44
:1009C800224B5A71214B5A7C204B9A711F4B9A7CAF
:1009D8001E4BDA711D4B9B7A012B03D01B4B9B7A64
:1009E800032B04D1194B5B681E4A1361C9E0174BEE
:1009F8009B7A022B04D0154B9B7A042B40F0C180C4
:100A0800124B5B68184A1361BBE0104BDB7A032B6F
:100A18003AD10E4BDA7B0D4B1A710C4B1A7C0B4BEF
:100A28005A710A4B5A7C094B9A71084B9A7C074BAE
:100A3800DA71064B9B7A012B03D0044B9B7A032B6C
:100A480014D1024B5B68074A53619AE030000020DA
:100A58005800002064000020E8030020F80300206C
:100A68007F00002080030020B4030020484B9B7ABD
:100A7800022B04D0464B9B7A042B40F08280444BD7
:100A88005B68444A53617CE0414BDB7A042B29D1F3
:100A98003F4BDA7B3E4B1A713D4B1A7C3C4B5A71EB
:100AA8003B4B5A7C3A4B9A71394B9A7C384BDA71EA
:100AB800374B9B7A012B03D0354B9B7A032B04D100
:100AC800334B5B68344A93615BE0314B9B7A022B72
:100AD80003D02F4B9B7A042B53D12D4B5B682D4AA7
:100AE80093614EE02A4BDB7A082B0BD1284B9B7A7B
:100AF800012B03D0264B9B7A032B42D1274B08228C
:100B08001A703EE0224BDB7A092B0BD1204B9B7AE3
:100B1800012B03D01E4B9B7A032B32D11F4B09228A
:100B28001A702EE01A4BDB7A052B2AD11B4B0522B3
:100B38001A70174B5A7B164B1A70154B9A7B144B2D
:100B48005A70134BB3F90020154B1A80104BDA7BFF
:100B58000F4B1A700E4B1A7C0D4B5A700C4BB3F995
:100B68000020104B1A800A4B5A7C094B1A70084B0C
:100B78009A7C074B5A70064BB3F900200A4B1A802F
:100B8800FFE700BF0C37BD465DF8047B704700BF28
:100B980030000020B4030020800300207F000020E4
:100BA80080000020820000208400002080B582B0F0
:100BB80000AF7860786804F015F800BF0837BD46C4
:100BC80080BD000080B400AF0F4BDB680E4A23F0F5
:100BD8008073D3600C4BDB680B4A43F08073D3609F
:100BE8000A4B1B68094A23F001031360074B1B6873
:100BF800064A43F001031360044B00225A6000BF09
:100C0800BD465DF8047B7047F0ED00E0001000E0A1
:100C1800B0B400AF094B5A68094B1B680949A1FBDE
:100C280003139B0CB2FBF3F300221C461546224625
:100C38002B4610461946BD46B0BC7047001000E070
:100C48000800002083DE1B4380B487B000AF87ED27
:100C5800050AC7ED040A87ED031AC7ED021A87EDE6
:100C6800012A97ED057AD7ED047A37EE677AD7ED42
:100C7800016AD7ED027A76EEE77A67EE276A97ED92
:100C8800037AD7ED047A77EE677A86EEA77AD7EDFE
:100C9800027A77EE277AB0EE670A1C37BD465DF810
:100CA800047B704780B483B000AF87ED010A114B15
:100CB800D3ED007AB7EE007A37EE677AD7ED017A8E
:100CC80027EE277A0C4BD3ED006A0A4BD3ED007A56
:100CD80066EEA77A77EE277A074BC3ED007A064BC4
:100CE8001B6807EE903AB0EE670A0C37BD465DF810
:100CF800047B7047040000207C03002080B483B08C
:100D080000AF0346FB80FB88082B08D0FB88B3F5AF
:100D1800004F04D1094B1B680133084A1360FB8854
:100D2800402B04D1064B1B680133054A136000BFF2
:100D38000C37BD465DF8047B704700BFF803002000
:100D4800E803002080B588B000AF07F10C0300224B
:100D58001A605A609A60DA601A613C4BDB6C3B4A55
:100D680043F00103D364394BDB6C03F00103BB6030
:100D7800BB68364BDB6C354A43F00203D364334B14
:100D8800DB6C03F002037B607B68002220214FF0BC
:100D9800904003F0F7FC002220212D4803F0F2FCDC
:100DA8002023FB6001233B6100237B610023BB619F
:100DB80007F10C0319464FF0904003F061FB48F22D
:100DC8004003FB604FF488133B6100237B6107F10C
:100DD8000C0319464FF0904003F052FB0823FB60C8
:100DE8004FF488133B6100237B6107F10C0319461C
:100DF800174803F045FB2023FB6001233B610023D8
:100E08007B610023BB6107F10C031946104803F00E
:100E180037FB00220121092003F015F8092003F00F
:100E28002CF800220221172003F00DF8172003F0F8
:100E380024F800220321282003F005F8282003F0D5
:100E48001CF800BF2037BD4680BD00BF001002401F
:100E58000004004880B582B000AF7860A94B1B78C9
:100E6800012B40F0A681A84BD3ED007AF0EEE77A8B
:100E7800F5EEC07AF1EE10FA40F38680A34B5B786A
:100E8800012B40F08180A24B1A68A14B9B68D31AB2
:100E98009F4A53609E4B1B689D4A93609C4B5B68BE
:100EA80007EE903AF8EE676A994B93ED037AC6EE2F
:100EB800877A9FED987A67EE877A944BC3ED017A2B
:100EC800914BD3ED007AB0EEE77A904BD3ED017AEF
:100ED80077EE677A8C4BC3ED017A8B4800F070FF90
:100EE800894BD3ED0A7AF5EEC07AF1EE10FA0ED5F9
:100EF800854B4FF000029A62874B1B6844F26722C9
:100F0800DA63854B1B6844F267221A6473E07E4BF0
:100F1800D3ED007AF5EEC07AF1EE10FA10DD7E4BD3
:100F28001B680022DA63784BD3ED0A7AF0EEE77A91
:100F3800794B1B68FCEEE77A17EE902A1A645AE0A0
:100F4800714BD3ED007AF5EEC07AF1EE10FA10D5B8
:100F58006D4BD3ED0A7AF0EEE77A6F4B1B68FCEE27
:100F6800E77A17EE902ADA636B4B1B6800221A6443
:100F780041E0694B1B6844F26722DA63664B1B68E1
:100F880044F267221A6436E0604B5B78012B32D159
:100F98005F4B1A685E4B9B68D31A5D4A53605C4B83
:100FA8001B685B4A93605A4B5B6807EE903AF8EE11
:100FB800676A574B93ED037AC6EE877A9FED557AA9
:100FC80067EE877A514BC3ED017A534B1B6844F2A5
:100FD8006722DA63504B1B6844F267221A644A4B53
:100FE8004FF000025A60484B4FF000029A60464B9F
:100FF8004FF00002DA60494BD3ED007AF0EEE77A61
:10100800F5EEC07AF1EE10FA40F39B80444B5B7822
:10101800012B40F09680434B1A68424B9B68D31AC9
:10102800404A53603F4B1B683E4A93603D4B5B68A8
:1010380007EE903AF8EE676A3A4B93ED037AC6EEFC
:10104800877A9FED347A67EE877A354BC3ED017A5C
:10105800324BD3ED007AB0EEE77A314BD3ED017A1B
:1010680077EE677A2D4BC3ED017A2C4800F0A8FE85
:101078002A4BD3ED0A7AF5EEC07AF1EE10FA0ED5C6
:10108800264B4FF000029A62274B1B6844F26722F6
:101098009A63254B1B6844F267225A63D0E01F4BC2
:1010A800D3ED007AF5EEC07AF1EE10FA10DD1E4BA2
:1010B8001B6800229A63194BD3ED0A7AF0EEE77A9F
:1010C800194B1B68FCEEE77A17EE902A5A63B7E0D3
:1010D800124BD3ED007AF5EEC07AF1EE10FA25D571
:1010E8000E4BD3ED0A7AF0EEE77A0F4B1B68FCEE55
:1010F800E77A17EE902A9A630B4B1B6800225A6313
:101108009EE000BF7F0000208003002058000020E0
:10111800E80300200080BB4584020020B4030020BF
:1011280064000020F8030020D0020020464B1B6812
:1011380044F267229A63444B1B6844F267225A635D
:101148007EE0424B5B78012B7AD1414B1A68404BC9
:101158009B68D31A3E4A53603D4B1B683C4A9360D8
:101168003B4B5B6807EE903AF8EE676A384B93EDB5
:10117800037AC6EE877A9FED377A67EE877A334B24
:10118800C3ED017A304B1B6844F267229A632E4BF9
:101198001B6844F267225A632F4B4FF000025A60D3
:1011A8002D4B4FF000029A602B4B4FF00002DA6093
:1011B80046E02A4B1B78002B42D1294B5B78012B48
:1011C8001CD1284B1A68274B9B68D31A254A5360B1
:1011D800244B1B68234A9360224B5B6807EE903AC6
:1011E800F8EE676A1F4B93ED037AC6EE877A9FED98
:1011F800197A67EE877A1A4BC3ED017A134B5B783D
:10120800012B1DD1124B1A68114B9B68D31A104A37
:1012180053600F4B1B680E4A93600D4B5B6807EEDB
:10122800903AF8EE676A0A4B93ED037AC6EE877A2E
:101238009FED087A67EE877A044BC3ED017AFFE7E2
:1012480000BF0837BD4680BDD002002064000020E2
:10125800F80300200080BB45B40300207F00002075
:1012680058000020E80300202DE9B04300AF01F04A
:1012780064F900F0DBF900F033FB00F071FB00F0DB
:101288000FFC00F073FC8F4803F0ACFC642001F005
:10129800C5F98D4B13221A70FFF794FC00F04CFD32
:1012A80039E08A4B5B78012B07D1894B5B78012B9E
:1012B80003D1884B01229A700AE0844B5B78022B99
:1012C80006D1834B5B78012B02D1824B02229A70A4
:1012D800804B9B78022B15D100F0B0FC00F07CFC11
:1012E80000F088FA00F0EEF903227B497B4801F010
:1012F80083FD02227A497B4801F07EFD754B01226D
:101308001A7008E0734B9B78012B04D1FFF71AFD84
:10131800704B01221A706F4B1B7883F00103DBB20C
:10132800002BBED1012220214FF0904003F02AFA71
:10133800012220216C4803F025FA08216B4806F0A9
:10134800DBF80C21694806F0D7F80421684806F054
:10135800D3F80021664806F0CFF8664806F004F88E
:10136800624B1B680022DA63604B1B6800221A6418
:101378005F4B1B6800229A635D4B1B6800225A630F
:101388005D4B5E4ADA605E4B5C4ADA60514B9B7893
:10139800022B45D1524B1B6807EE903AF8EE677A5C
:1013A800B0EE670AFFF77EFCF0EE407AFDEEE77AD2
:1013B80017EE903A1AB2534B1A80524BB3F90030D9
:1013C8009AB2514BB3F900309BB2D31A9BB21AB2FE
:1013D8004E4B1A804D4BB3F9003007EE903AF8EEB9
:1013E800E77A4B4BB3F9003007EE103AB8EEC77AFC
:1013F800484BB3F9003006EE903AF8EEE66A9FEDF6
:10140800462ADFED461AB0EE661AF0EE470AB0EE4D
:10141800670AFFF719FCF0EE407A414BC3ED027AF8
:10142800404B1B78002B40F08980284BB3F90230E1
:10143800002B0ADD2D4B1B680022DA63234BB3F91E
:1014480002202A4B1B681A641AE0204BB3F90230B9
:10145800002B0BDA1D4BB3F902305A42234B1B68A1
:10146800DA63224B1B6800221A6409E01F4B1B68D1
:1014780044F26722DA631D4B1B6844F267221A6440
:10148800134BB3F90230002B0ADD194B1B680022FD
:101498009A630F4BB3F90220154B1B685A634DE052
:1014A8000B4BB3F90230002B3EDA094BB3F902308B
:1014B8005A420F4B1B689A630D4B1B6800225A63F4
:1014C8003CE000BF3002002000000020580000204F
:1014D800640000207C0000206803002098000020A1
:1014E8007403002004010020000400488402002046
:1014F800D00200201C030020E80300200000304137
:10150800F8030020860000208000002088000020CA
:10151800820000208400002000003443000034C30F
:10152800700000207F000020354B1B6844F26722C2
:101538009A63334B1B6844F267225A63FFF768FBD0
:1015480002460B462F490968002088468146B2EBBF
:10155800080463EB09052C4B9C4275F10003FFF46A
:1015680015AF2A4B1A682A4B1B689A423CD1294B63
:1015780000221A70284B1B6844F26722DA63264B54
:101588001B6844F267221A641D4B1B6844F26722E9
:101598009A631B4B1B6844F267225A631F4B4FF038
:1015A80000021A601D4B4FF000029A601B4B4FF06F
:1015B8000002DA60194B4FF000029A62184B4FF0A4
:1015C80000021A60164B4FF000029A60144B4FF05D
:1015D8000002DA60124B4FF000029A62114B0022AF
:1015E8005A80114B00225A80084B1B68084A136026
:1015F800FFF70EFB02460B46024B1A60C6E600BF19
:10160800D00200208C00002041420F0090000020F2
:10161800940000207F000020840200208003002026
:10162800B4030020580000206400002080B594B066
:1016380000AF07F1180338220021184607F07AF89E
:101648003B1D00221A605A609A60DA601A61002015
:1016580004F04CFE0223BB614FF480737B6240238D
:10166800BB6202237B630223BB630423FB63552312
:101678003B6402237B640223BB640223FB6407F1FF
:101688001803184604F0E6FE0346002B01D000F0CC
:101698004DFB0F237B600323BB600023FB6000230B
:1016A8003B6100237B613B1D0421184605F0E4F9EA
:1016B8000346002B01D000F039FB00BF5037BD4670
:1016C80080BD000080B58CB000AF07F12403002274
:1016D8001A605A609A603B1D20220021184607F0C4
:1016E80029F8404B4FF0A0421A603E4B4FF440326D
:1016F8005A603C4B00229A603A4B0022DA60394B20
:1017080000221A61374B01225A61364B04229A6132
:10171800344B00221A77334B01225A77314B03227C
:101728001A62304B002283F824202E4B0022DA6202
:101738002C4B00221A632B4B012283F83820294BAB
:101748004FF48052DA63274B002283F84020254863
:1017580001F0A4F90346002B01D000F0E7FA0023BA
:101768007B6207F1240319461E4802F0A9F90346D3
:10177800002B01D000F0DAFA1B4B7B600623BB601C
:101788000523FB607F233B6104237B610023BB614E
:101798003B1D1946134801F017FC0346002B01D0E6
:1017A80000F0C4FA114B7B600C23BB603B1D19464B
:1017B8000C4801F009FC0346002B01D000F0B6FAF2
:1017C8000B4B7B601223BB603B1D1946054801F09B
:1017D800FBFB0346002B01D000F0A8FA00BF30370E
:1017E800BD4680BD980000200800900C1000C01075
:1017F8000080F03E80B588B000AF3B462022002133
:10180800184606F097FF324B324A1A60304B4FF4B5
:1018180040325A602E4B00229A602D4B0022DA602B
:101828002B4B00221A612A4B01225A61284B0422B1
:101838009A61274B00221A77254B01225A77244BAD
:1018480002221A62224B002283F82420204B002215
:10185800DA621F4B00221A631D4B012283F83820DD
:101868001B4B4FF48052DA63194B002283F8402057
:10187800174801F013F90346002B01D000F056FA7F
:10188800154B3B6006237B600523BB607F23FB6011
:1018980004233B6100237B613B4619460C4801F059
:1018A80093FB0346002B01D000F040FA0B4B3B6042
:1018B8000C237B603B461946054801F085FB03462F
:1018C800002B01D000F032FA00BF2037BD4680BDA2
:1018D80004010020000100501000C0100000524711
:1018E80080B500AF1B4B1C4A1A601A4B1B4A5A6042
:1018F800184B26229A60174B0122DA60154B0022FA
:101908001A61144B00225A61124B00229A61114B42
:101918000022DA610F4B00221A620E4802F062FFC1
:101928000346002B01D000F001FA0021094804F019
:1019380045FC0346002B01D000F0F8F900210548CA
:1019480004F087FC0346002B01D000F0EFF900BF3C
:1019580080BD00BF3002002000580040FBA7A03027
:1019680080B598B000AF07F1540300221A605A609E
:101978009A6007F1380300221A605A609A60DA60A8
:101988001A615A619A613B1D34220021184606F0FB
:10199800D1FE414B414A1A603F4B00225A603E4BF0
:1019A80000229A603C4B44F26722DA603A4B0022EC
:1019B8001A61394B00225A61374B80229A613648A6
:1019C80005F042FD0346002B01D000F0AFF90023DB
:1019D8007B650023BB650023FB6507F154031946AB
:1019E8002D4806F01BFD0346002B01D000F09EF9A0
:1019F8006023BB630023FB6300233B6400237B64F9
:101A08000023BB640023FB6400233B6507F1380314
:101A180008221946204805F0CBFF0346002B01D0C9
:101A280000F084F907F138030C2219461A4805F02A
:101A3800BFFF0346002B01D000F078F900237B603C
:101A48000023BB600023FB6000233B6100237B6114
:101A58004FF40053BB610023FB6100233B6200236A
:101A68007B624FF00073BB620023FB6200233B6381
:101A780000237B633B1D1946074806F05DFD0346BE
:101A8800002B01D000F052F9034800F037FC00BFEA
:101A98006037BD4680BD00BF84020020002C014095
:101AA80080B58AB000AF07F11C0300221A605A60A3
:101AB8009A603B4600221A605A609A60DA601A619E
:101AC8005A619A61274B284A1A60264B00225A60AD
:101AD800244B00229A60234B44F26722DA60214BA0
:101AE80000221A611F4B80229A611E4805F0ACFC47
:101AF8000346002B01D000F019F90023FB610023F5
:101B08007B6207F11C031946164806F087FC03465A
:101B1800002B01D000F00AF960233B6000237B60B2
:101B28000023BB6000233B613B46002219460D4859
:101B380005F03EFF0346002B01D000F0F7F83B46C6
:101B480004221946074805F033FF0346002B01D04D
:101B580000F0ECF8034800F0D1FB00BF2837BD4681
:101B680080BD00BFD00200200008004080B584B0CE
:101B780000AF3B1D00221A605A609A60144B154A48
:101B88001A60134B63225A60114B00229A60104B63
:101B980044F26722DA600E4B00229A610C4805F085
:101BA8008BFB0346002B01D000F0C0F800237B60BC
:101BB8000023FB603B1D1946054806F02FFC034631
:101BC800002B01D000F0B2F800BF1037BD4680BD31
:101BD8001C0300200010004080B582B000AF164BF7
:101BE8009B6C154A43F004039364134B9B6C03F0FE
:101BF80004037B607B68104B9B6C0F4A43F0010326
:101C080093640D4B9B6C03F001033B603B6800221F
:101C180000210B2002F017F90B2002F02EF9002208
:101C280000210C2002F00FF90C2002F026F900BF69
:101C38000837BD4680BD00BF0010024080B588B09F
:101C480000AF07F10C0300221A605A609A60DA604C
:101C58001A61344BDB6C334A43F00103D364314BD4
:101C6800DB6C03F00103BB60BB682E4BDB6C2D4AB9
:101C780043F00203D3642B4BDB6C03F002037B605D
:101C88007B68002220214FF0904002F07BFD00226B
:101C98002021254802F076FD2023FB6001233B61CB
:101CA80000237B610023BB6107F10C0319464FF049
:101CB800904002F0E5FB48F24003FB604FF48813C4
:101CC8003B6100237B6107F10C0319464FF09040FC
:101CD80002F0D6FB0823FB604FF488133B61002316
:101CE8007B6107F10C0319460F4802F0C9FB20235A
:101CF800FB6001233B6100237B610023BB6107F18B
:101D08000C031946084802F0BBFB002203212820D7
:101D180002F099F8282002F0B0F800BF2037BD463D
:101D280080BD00BF001002400004004880B400AF2E
:101D380072B600BFFEE7000080B400AF1B4B4FF047
:101D480000021A60194B4FF000029A60174B184AAC
:101D58001A63164B4FF08F42DA62144B154A1A6118
:101D6800124B154A5A61114B4FF000029A61134BFE
:101D78004FF000021A60114B4FF000029A600F4BAF
:101D88000B4A1A630D4B4FF08F42DA620B4B094A2C
:101D98001A610A4B084A5A61084B4FF000029A61CF
:101DA80000BFBD465DF8047B704700BF800300207C
:101DB80000CE8446C3F548406DE77B3EB40300205F
:101DC80080B483B000AF78607B6893ED027A7B685B
:101DD800D3ED017A77EE277A7B68C3ED027A7B68C8
:101DE80093ED027A7B68D3ED0B7AB4EEE77AF1EEE5
:101DF80010FA04DD7B68DA6A7B689A6014E07B6815
:101E080093ED027A7B68D3ED0B7AF1EE677AB4EE44
:101E1800E77AF1EE10FA07D57B68D3ED0B7AF1EE8D
:101E2800677A7B68C3ED027A7B6893ED017A7B68F9
:101E3800D3ED047A67EE277A7B68C3ED077A7B686F
:101E480093ED027A7B68D3ED057A67EE277A7B6893
:101E5800C3ED087A7B6893ED017A7B68D3ED037A4A
:101E680037EE677A7B68D3ED067A67EE277A7B6868
:101E7800C3ED097A7B6893ED077A7B68D3ED087A1E
:101E880037EE277A7B68D3ED097A77EE277A7B6875
:101E9800C3ED0A7A7B6893ED0A7A7B68D3ED0C7AF6
:101EA800B4EEE77AF1EE10FA04DD7B681A6B7B6812
:101EB8009A6214E07B6893ED0A7A7B68D3ED0C7A1A
:101EC800F1EE677AB4EEE77AF1EE10FA07D57B689F
:101ED800D3ED0C7AF1EE677A7B68C3ED0A7A7B68FA
:101EE8005A687B68DA6000BF0C37BD465DF8047B32
:101EF8007047000080B582B000AF0F4B1B6E0E4AD2
:101F080043F0010313660C4B1B6E03F001037B6067
:101F18007B68094B9B6D084A43F080539365064BD9
:101F28009B6D03F080533B603B6804F083FA00BF6D
:101F38000837BD4680BD00BF0010024080B5A0B084
:101F480000AF786007F16C0300221A605A609A604B
:101F5800DA601A6107F11C0350220021184606F0C6
:101F6800E9FB7B681B68B3F1A04F40F082804FF417
:101F78000043FB614FF00053FB6507F11C03184653
:101F880004F05EFF0346002B01D0FFF7CFFE724B33
:101F98001B680133704A13606F4B1B68012B0BD110
:101FA8006E4BDB6C6D4A43F40053D3646B4BDB6CB4
:101FB80003F40053BB61BB69684BDB6C674A43F0B1
:101FC8000103D364654BDB6C03F001037B617B6920
:101FD800624BDB6C614A43F00203D3645F4BDB6CFA
:101FE80003F002033B613B690C23FB6603233B6759
:101FF80000237B6707F16C0319464FF0904002F00D
:102008003FFA0123FB6603233B6700237B6707F145
:102018006C031946524802F033FA524B524A1A607E
:10202800504B05225A604F4B00229A604D4B0022BC
:10203800DA604C4B80221A614A4B4FF480725A6125
:10204800484B4FF480629A61464B2022DA61454B37
:1020580000221A62434801F02BFF0346002B01D0EF
:10206800FFF764FE7B683F4A5A653E4A7B68936285
:102078006DE07B681B683D4A934268D14FF400438A
:10208800FB614FF00053FB6507F11C03184604F091
:10209800D7FE0346002B01D0FFF748FE2E4B1B68E6
:1020A80001332D4A13602C4B1B68012B0BD12B4B92
:1020B800DB6C2A4A43F40053D364284BDB6C03F4EB
:1020C8000053FB60FB68254BDB6C244A43F001039B
:1020D800D364224BDB6C03F00103BB60BB68902325
:1020E800FB6603233B6700237B6707F16C031946F4
:1020F8004FF0904002F0C4F91D4B1E4A1A601C4B69
:1021080024225A601A4B00229A60194B0022DA6086
:10211800174B80221A61164B4FF480725A61144B88
:102128004FF480629A61124B2022DA61104B002230
:102138001A620F4801F0BCFE0346002B01D0FFF7DE
:10214800F5FD7B680A4A5A65094A7B68936200BFB5
:102158008037BD4680BD00BF080400200010024043
:1021680000040048700100201C00024000010050DB
:10217800D00100200800024080B59EB000AF786012
:1021880007F1640300221A605A609A60DA601A61E3
:1021980007F1140350220021184606F0CBFA7B6899
:1021A8001B68274A934247D180237B6100237B63C6
:1021B80007F11403184604F043FE0346002B01D030
:1021C800FFF7B4FD1F4BDB6C1E4A43F00103D364D9
:1021D8001C4BDB6C03F001033B613B694FF440731C
:1021E8007B661223BB660123FB6600233B6704233F
:1021F8007B6707F1640319464FF0904002F040F9FD
:10220800104B9B6D0F4A43F4800393650D4B9B6DF8
:1022180003F48003FB60FB6800220021212001F009
:1022280012FE212001F029FE00220021222001F0C7
:102238000AFE222001F021FE00BF7837BD4680BD8E
:10224800005800400010024080B485B000AF7860AC
:102258007B681B68134A93420CD1134B1B6E124ABE
:1022680043F400631366104B1B6E03F40063FB60BA
:10227800FB6810E07B681B680C4A93420BD10A4B41
:102288009B6D094A43F004039365074B9B6D03F06C
:102298000403BB60BB6800BF1437BD465DF8047B10
:1022A800704700BF002C01400010024000080040A9
:1022B80080B584B000AF78607B681B680D4A934294
:1022C80013D10D4B9B6D0C4A43F0100393650A4BD9
:1022D8009B6D03F01003FB60FB6800220021362091
:1022E80001F0B1FD362001F0C8FD00BF1037BD4632
:1022F80080BD00BF001000400010024080B58AB0C9
:1023080000AF786007F1140300221A605A609A60DF
:10231800DA601A617B681B682C4A934230D12C4BD7
:10232800DB6C2B4A43F00103D364294BDB6C03F0CD
:1023380001033B613B694FF480637B610223BB610E
:102348000023FB6100233B6206237B6207F1140331
:1023580019464FF0904002F093F84FF400637B6108
:102368000223BB610023FB6100233B620B237B62DA
:1023780007F1140319464FF0904002F081F820E06D
:102388007B681B68134A93421BD1114BDB6C104AC4
:1023980043F00203D3640E4BDB6C03F00203FB60D3
:1023A800FB68C0237B610223BB610023FB61002320
:1023B8003B6202237B6207F114031946064802F0C8
:1023C8005FF800BF2837BD4680BD00BF002C014024
:1023D80000100240000800400004004880B400AF2C
:1023E800FEE780B400AFFEE780B400AFFEE780B43C
:1023F80000AFFEE780B400AFFEE780B400AF00BFD7
:10240800BD465DF8047B704780B400AF00BFBD4691
:102418005DF8047B704780B400AF00BFBD465DF82F
:10242800047B704780B500AF00F0DAF800BF80BDCC
:1024380080B500AF082002F0BDF900BF80BD0000E4
:1024480080B500AF024801F0BDFE00BF80BD00BFEF
:10245800D001002080B500AF024801F0B3FE00BFF4
:1024680080BD00BF7001002080B500AF402002F0A1
:10247800A1F900BF80BD000080B500AF024802F09E
:10248800D1FB00BF80BD00BF3002002080B500AF87
:10249800024802F0E1FB00BF80BD00BF300200200F
:1024A80080B500AF4FF4004002F084F900BF80BD52
:1024B80080B500AF024805F02BF900BF80BD00BF12
:1024C8001C03002080B400AF064BD3F88830054ABF
:1024D80043F47003C2F8883000BFBD465DF8047B42
:1024E800704700BF00ED00E00D488546FFF7EAFFA2
:1024F8000C480D490D4A002302E0D458C450043357
:10250800C4188C42F9D30A4A0A4C002301E013602C
:102518000432A242FBD306F0E9F8FEF7A5FEFEE777
:1025280000C0012000000020140000207C87000863
:102538001400002010040020FEE780B582B000AF30
:102548000023FB71032001F073FC0F2000F00EF84C
:102558000346002B02D00123FB7101E0FFF7CAFC00
:10256800FB7918460837BD4680BD000080B584B0A9
:1025780000AF78600023FB73164B1B68002B22D03A
:10258800154B1A68134B1B684FF47A71B1FBF3F3C0
:10259800B2FBF3F3184601F07EFC0346002B0FD183
:1025A8007B680F2B09D8002279684FF0FF3001F0C3
:1025B8004AFC0A4A7B68136007E00123FB7304E0C6
:1025C8000123FB7301E00123FB73FB7B18461037E3
:1025D800BD4680BD10000020080000200C0000202F
:1025E80080B400AF054B1A68054B1B681344034AB7
:1025F800136000BFBD465DF8047B70470C040020E3
:102608001000002080B400AF034B1B681846BD467D
:102618005DF8047B704700BF0C04002080B584B0CF
:1026280000AF7860FFF7EEFFB8607B68FB60FB687F
:10263800B3F1FF3F04D0094B1B68FA681344FB60F1
:1026480000BFFFF7DFFF0246BB68D31AFA689A4259
:10265800F7D800BF00BF1037BD4680BD100000206E
:1026680080B483B000AF786039607B689B6823F4DE
:102678007C123B681A437B689A6000BF0C37BD46E2
:102688005DF8047B704780B483B000AF7860396030
:102698007B689B6823F0E0723B681A437B689A600A
:1026A80000BF0C37BD465DF8047B704780B483B02B
:1026B80000AF78607B689B6803F0E07318460C37BE
:1026C800BD465DF8047B704780B487B000AFF86002
:1026D800B9607A603B60FB6860331A46BB689B0050
:1026E80013447B617B691A68084B13407A6802F0CF
:1026F800F8413A680A43134343F000427B691A6081
:1027080000BF1C37BD465DF8047B704700F0FF032F
:1027180080B485B000AF786039607B6860331A4652
:102728003B689B001344FB60FB681B6803F0F8439D
:1027380018461437BD465DF8047B704780B487B0EF
:1027480000AFF860B9607A60FB6860331A46BB680E
:102758009B0013447B617B691B6823F000427B6804
:102768001A437B691A6000BF1C37BD465DF8047BBD
:10277800704780B487B000AFF860B9607A60FB68D2
:1027880060331A46BB689B0013447B617B691B68F6
:1027980023F080727B681A437B691A6000BF1C377C
:1027A800BD465DF8047B704780B487B000AFF86021
:1027B800B9607A60FB6860331A46BB689B001344B3
:1027C8007B617B691B6823F000727B681A437B6915
:1027D8001A6000BF1C37BD465DF8047B704780B4A3
:1027E80083B000AF786039607B685B6923F0004292
:1027F8003B681A437B685A6100BF0C37BD465DF8D9
:10280800047B704780B483B000AF78607B68DB6876
:1028180003F44063002B01D1012300E00023184694
:102828000C37BD465DF8047B704780B487B000AFB5
:10283800F860B9607A60FB6830331A46BB681B0AD7
:102848009B0003F00C0313447B617B691A68BB6827
:1028580003F01F031F2101FA03F3DB431A407B68CF
:102868009B0E03F01F01BB6803F01F0301FA03F37B
:102878001A437B691A6000BF1C37BD465DF8047BAC
:10288800704780B487B000AFF860B9607A60FB68C1
:1028980014331A46BB685B0E9B0003F00403134411
:1028A8007B617B691A68BB681B0D03F01F03072156
:1028B80001FA03F3DB431A40BB681B0D03F01F0347
:1028C800796801FA03F31A437B691A6000BF1C3761
:1028D800BD465DF8047B704780B485B000AFF860F2
:1028E800B9607A60FB68D3F8B020BB68C3F3120301
:1028F800DB431A407B6803F018030849D940BB68DA
:102908000B40C3F312031A43FB68C3F8B02000BF9F
:102918001437BD465DF8047B704700BFFFFF070012
:1029280080B483B000AF78607B689B6803F01F03B6
:1029380018460C37BD465DF8047B704780B483B0F9
:1029480000AF78607B689B6823F0204323F03F0347
:102958007A68936000BF0C37BD465DF8047B70470A
:1029680080B483B000AF78607B689B6803F0005345
:10297800B3F1005F01D1012300E0002318460C37B2
:10298800BD465DF8047B704780B483B000AF7860C3
:102998007B689B6823F0104323F03F0343F0805289
:1029A8007B689A6000BF0C37BD465DF8047B7047B2
:1029B80080B483B000AF78607B689B6803F0805375
:1029C800B3F1805F01D1012300E0002318460C37E2
:1029D800BD465DF8047B704780B483B000AF786073
:1029E8007B689B6823F0004323F03F0343F0010218
:1029F8007B689A6000BF0C37BD465DF8047B704762
:102A080080B483B000AF78607B689B6803F00103F3
:102A1800012B01D1012300E0002318460C37BD46E5
:102A28005DF8047B704780B483B000AF78607B6842
:102A38009B6823F0004323F03F0343F004027B68C4
:102A48009A6000BF0C37BD465DF8047B704780B4C0
:102A580083B000AF78607B689B6803F00403042BA5
:102A680001D1012300E0002318460C37BD465DF86C
:102A7800047B704780B483B000AF78607B689B6844
:102A880003F00803082B01D1012300E000231846B6
:102A98000C37BD465DF8047B7047000090B589B0DF
:102AA80000AF78600023FB770023FB607B68002B76
:102AB80001D101239BE17B685B69002B7B68DB6D9F
:102AC800002B09D17868FFF739FA7B6800221A666B
:102AD8007B68002283F858207B681B681846FFF73C
:102AE8003FFF0346002B04D07B681B681846FFF79E
:102AF80025FF7B681B681846FFF75AFF0346002B23
:102B080015D17B681B681846FFF73EFF974B1B687B
:102B18009B09974AA2FB03239B0901335B00FB60D7
:102B280002E0FB68013BFB60FB68002BF9D17B6886
:102B38001B681846FFF73CFF0346002B0DD17B6846
:102B4800DB6D43F010027B68DA657B681B6E43F02F
:102B580001027B681A660123FB777B681B681846AD
:102B6800FFF775FF78617B68DB6D03F01003002BBE
:102B780040F034817B69002B40F030817B68DB6D4D
:102B880023F4817343F002027B68DA657B681B6873
:102B98001846FFF735FF0346002B37D17B681B68C3
:102BA800B3F1A04F04D07B681B68724A93420FD1DF
:102BB8004FF0A040FFF724FF04466E48FFF720FFC0
:102BC80003462343002B0CBF01230023DBB208E09C
:102BD8006948FFF715FF0346002B0CBF01230023AC
:102BE800DBB2002B12D07B681B68B3F1A04F04D076
:102BF8007B681B685F4A934201D1604A00E0604AE3
:102C08007B685B6819461046FFF72AFD7B685B7F87
:102C18005A037B68DB6B1A437B68DB681A437B6863
:102C28009B681A437B6893F824301B041343BB61E9
:102C38007B6893F82430012B06D17B689B6A013BA3
:102C48005B04BA691343BB617B68DB6A002B09D05C
:102C58007B68DB6A03F478727B681B6B1343BA6981
:102C68001343BB617B681B68DA68464B13407A687C
:102C78001268B9690B43D3607B681B681B6923F032
:102C880040617B685A6B7B681B680A431A617B68E2
:102C98001B681846FFF7EEFE38617B69002B7BD175
:102CA8003B69002B78D17B681B7F9A037B6893F87C
:102CB80038305B001343BB617B681B68DB6823F417
:102CC800804323F002037A681268B9690B43D36022
:102CD8007B681B69002B17D07B681B681A697B68A7
:102CE8001B6842F480321A617B681B68D3F8C030D5
:102CF80023F47F5323F03F037A6811697A681268D6
:102D08000B43C2F8C03013E07B681B681A697B6804
:102D18001B6822F480321A617B681B68D3F8C030C4
:102D28007A68126823F47F5323F03F03C2F8C03057
:102D38007B6893F84030012B26D17B681B681B69A0
:102D480023F4FF6323F004037A68516C7A68926C69
:102D580011437A68D26C11437A68126D0A431A4398
:102D68007B681B6842F001021A6115E00800002028
:102D7800632D3E0500010050000400500003005080
:102D8800000700500740F0FF7B681B681A697B68E2
:102D98001B6822F001021A617B685B69012B0CD168
:102DA8007B681B681B6B23F00F017B681B6A5A1E2C
:102DB8007B681B680A431A6307E07B681B681A6B09
:102DC8007B681B6822F00F021A637B68DB6D23F0B7
:102DD800030343F001027B68DA6507E07B68DB6D7B
:102DE80043F010027B68DA650123FB77FB7F184606
:102DF8002437BD4690BD00BF80B586B000AFF860EF
:102E0800B9607A60FB681B68B3F1A04F04D0FB6817
:102E18001B68574A934201D1564B00E0564B18465F
:102E2800FFF77EFD3861FB681B681846FFF70FFE49
:102E38000346002B40F09480FB6893F85830012B30
:102E480001D102238FE0FB68012283F85820FB6838
:102E58001B684A4A934208D03B69002B05D03B695E
:102E6800052B02D03B69092B73D1F86800F0D8FC18
:102E78000346FB75FB7D002B66D1FB68DB6D23F4F5
:102E8800706323F0010343F48072FB68DA65FB6822
:102E98001B68374A934202D0FB681B6801E04FF079
:102EA800A043FA681268934202D03B69002B05D10F
:102EB800FB68DB6D23F48012FB68DA65FB68DB6D69
:102EC80003F48053002B06D0FB681B6E23F0060228
:102ED800FB681A6602E0FB6800221A66FB685B6DF5
:102EE800274ADA62FB685B6D264A1A63FB685B6DEA
:102EF800254A5A63FB681B681C221A60FB6800227B
:102F080083F85820FB681B685A68FB681B6842F006
:102F180010025A60FB681B68DA68FB681B6842F09D
:102F28000102DA60FB68586DFB681B68403319467C
:102F3800BA687B6801F064F80346FB75FB681B6898
:102F48001846FFF770FD0DE0FB68002283F8582053
:102F580008E00123FB75FB68002283F8582001E094
:102F68000223FB75FB7D18461837BD4680BD00BFA0
:102F780000010050000300500007005000040050FA
:102F8800553900082D3A0008493A000880B483B042
:102F980000AF786000BF0C37BD465DF8047B704712
:102FA80080B483B000AF786000BF0C37BD465DF8D1
:102FB800047B704780B483B000AF786000BF0C37E3
:102FC800BD465DF8047B704780B5B6B000AF786049
:102FD8003960002387F8D7300023FB607B6893F8BB
:102FE8005830012B02D1022300F004BC7B68012277
:102FF80083F858207B681B681846FFF728FD0346AE
:10300800002B40F0E8837B6818683B6859683B6888
:103018001B681A46FFF709FC7B681B681846FFF710
:1030280016FDC7F8D0007B681B681846FFF722FD1D
:10303800C7F8CC00D7F8D030002B40F0D981D7F8AA
:10304800CC30002B40F0D4813B689B68B3F1004F33
:103058000FD17B6818683B681B6800221946FFF788
:1030680010FC7B681B684FF000411846FFF7B7FB60
:103078000EE07B6818683B6819683B689B681A46CD
:10308800FFF7FFFB7B681B6800211846FFF7A7FBCB
:103098003B685A697B681B68DB68DB0803F003033D
:1030A8005B0002FA03F3C7F8C8303B681B69042BBE
:1030B80022D07B6818683B6819693B681A68D7F89A
:1030C800C830FFF701FB7B6818683B6819693B68E3
:1030D8009B691A46FFF74DFB7B6818683B681969BE
:1030E8003B681B7F012B02D14FF0007300E00023E7
:1030F8001A46FFF759FB7BE17B681B6800211846DD
:10310800FFF706FB0346C3F31203002B0AD17B68C3
:103118001B6800211846FFF7FBFA03469B0E03F0D5
:103128001F021EE07B681B6800211846FFF7F0FAB3
:103138000346C7F8BC30D7F8BC3093FAA3F3C7F8F6
:10314800B830D7F8B830C7F8C030D7F8C030002B3F
:1031580001D1202304E0D7F8C030B3FA83F3DBB2FF
:103168001A463B681B68C3F31203002B05D13B6862
:103178001B689B0E03F01F0318E03B681B68C7F829
:10318800B030D7F8B03093FAA3F3C7F8AC30D7F81B
:10319800AC30C7F8B430D7F8B430002B01D12023B5
:1031A80004E0D7F8B430B3FA83F3DBB29A4206D11D
:1031B8007B681B68002200211846FFF7BFFA7B686E
:1031C8001B6801211846FFF7A3FA0346C3F312034D
:1031D800002B0AD17B681B6801211846FFF798FA73
:1031E80003469B0E03F01F021EE07B681B6801214B
:1031F8001846FFF78DFA0346C7F8A430D7F8A4306D
:1032080093FAA3F3C7F8A030D7F8A030C7F8A830CE
:10321800D7F8A830002B01D1202304E0D7F8A83034
:10322800B3FA83F3DBB21A463B681B68C3F3120395
:10323800002B05D13B681B689B0E03F01F0318E0A9
:103248003B681B68C7F89830D7F8983093FAA3F30F
:10325800C7F89430D7F89430C7F89C30D7F89C302A
:10326800002B01D1202304E0D7F89C30B3FA83F374
:10327800DBB29A4206D17B681B68002201211846FE
:10328800FFF75CFA7B681B6802211846FFF740FAD3
:103298000346C3F31203002B0AD17B681B68022183
:1032A8001846FFF735FA03469B0E03F01F021EE08F
:1032B8007B681B6802211846FFF72AFA0346C7F8FD
:1032C8008C30D7F88C3093FAA3F3C7F88830D7F846
:1032D8008830C7F89030D7F89030002B01D12023E0
:1032E80004E0D7F89030B3FA83F3DBB21A463B68B0
:1032F8001B68C3F31203002B05D13B681B689B0EA8
:1033080003F01F0316E03B681B68C7F88030D7F846
:10331800803093FAA3F3FB67FB6FC7F88430D7F8C4
:103328008430002B01D1202304E0D7F88430B3FA8D
:1033380083F3DBB29A4206D17B681B680022022124
:103348001846FFF7FBF97B681B6803211846FFF74F
:10335800DFF90346C3F31203002B0AD17B681B680D
:1033680003211846FFF7D4F903469B0E03F01F020A
:1033780017E07B681B6803211846FFF7C9F9034665
:103388007B677B6F93FAA3F33B673B6FBB67BB6FAE
:10339800002B01D1202303E0BB6FB3FA83F3DBB228
:1033A8001A463B681B68C3F31203002B05D13B6820
:1033B8001B689B0E03F01F0311E03B681B68BB668C
:1033C800BB6E93FAA3F37B667B6EFB66FB6E002BEA
:1033D80001D1202303E0FB6EB3FA83F3DBB29A42F8
:1033E80006D17B681B68002203211846FFF7A6F95F
:1033F8007B681B681846FFF703FB0346002B40F069
:103408003D817B6818683B6819683B68DB681A4629
:10341800FFF762FA3B68DB68A24A934240F02E81CC
:103428007B6818683B681B68C3F31203002B0BD139
:103438003B681B689B0E013303F01F03092B94BFE5
:1034480001230023DBB219E03B681B68FB65FB6DB9
:1034580093FAA3F3BB65BB6D3B663B6E002B01D1B2
:10346800202303E03B6EB3FA83F3DBB2013303F0AE
:103478001F03092B94BF01230023DBB2002B79D053
:103488003B681B68C3F31203002B07D13B681B681A
:103498009B0E01339B0603F0F84215E03B681B685E
:1034A8003B653B6D93FAA3F3FB64FB6C7B657B6D1B
:1034B800002B01D1202303E07B6DB3FA83F3DBB249
:1034C80001339B0603F0F8423B681B68C3F3120301
:1034D800002B09D13B681B689B0E013303F01F03C7
:1034E800012101FA03F317E03B681B687B647B6CDE
:1034F80093FAA3F33B643B6CBB64BB6C002B01D118
:10350800202303E0BB6CB3FA83F3DBB2013303F08F
:103518001F03012101FA03F342EA03013B681B6818
:10352800C3F31203002B0AD13B681B689B0E0133BF
:1035380003F01F0213465B0013441B0518E03B68A9
:103548001B68BB63BB6B93FAA3F37B637B6BFB6367
:10355800FB6B002B01D1202303E0FB6BB3FA83F351
:10356800DBB2013303F01F0213465B0013441B0553
:103578000B437EE03B681B68C3F31203002B07D1A3
:103588003B681B689B0E01339B0603F0F84215E06D
:103598003B681B68FB62FB6A93FAA3F3BB62BB6AD6
:1035A8003B633B6B002B01D1202303E03B6BB3FA59
:1035B80083F3DBB201339B0603F0F8423B681B68D8
:1035C800C3F31203002B09D13B681B689B0E013320
:1035D80003F01F03012101FA03F317E03B681B689E
:1035E8003B623B6A93FAA3F3FB61FB697B627B6AEC
:1035F800002B01D1202303E07B6AB3FA83F3DBB20B
:10360800013303F01F03012101FA03F342EA030126
:103618003B681B68C3F31203002B0DD13B681B6882
:103628009B0E013303F01F0213465B0013441E3B3D
:103638001B0543F000731BE03B681B687B617B69DB
:1036480093FAA3F33B613B69BB61BB69002B01D1D2
:10365800202303E0BB69B3FA83F3DBB2013303F041
:103668001F0213465B0013441E3B1B0543F0007307
:103678000B433A6892681946FFF703F93B681A68E2
:10368800094B1340002B00F0AF807B681B68B3F137
:10369800A04F04D07B681B68044A93420AD1044BAC
:1036A80009E000BF00007F400000088000010050D2
:1036B80000030050514B1846FEF7F8FFC7F8C40046
:1036C8003B681B684E4A934204D03B681B684D4ACE
:1036D800934234D1D7F8C43003F40003002B2ED121
:1036E8007B681B68B3F1A04F7ED17B681B68B3F180
:1036F800A04F04D07B681B68434A934201D1434AD8
:1037080000E03E4AD7F8C43043F400031946104697
:10371800FEF7B9FF3E4B1B689B093E4AA2FB0323F9
:103728009B095A1C13465B0013449B00FB6002E094
:10373800FB68013BFB60FB68002BF9D154E03B6858
:103748001B68354A934220D1D7F8C43003F0807300
:10375800002B1AD17B681B68B3F1A04F44D17B685A
:103768001B68B3F1A04F04D07B681B68264A9342BC
:1037780001D1264A00E0214AD7F8C43043F08073CB
:1037880019461046FEF77FFF2EE03B681B68234A68
:10379800934229D1D7F8C43003F48003002B23D1F6
:1037A8007B681B68184A93421ED07B681B68B3F17C
:1037B800A04F04D07B681B68134A934201D1134A77
:1037C80000E00E4AD7F8C43043F480031946104687
:1037D800FEF759FF08E07B68DB6D43F020027B6849
:1037E800DA65012387F8D7307B68002283F85820F0
:1037F80097F8D7301846D837BD4680BD0007005027
:10380800000021C31000C0900001005000030050C8
:1038180008000020632D3E05000052C7000084CB3D
:1038280080B584B000AF78600023BB607B681B68FC
:103838001846FFF7E5F80346002B76D17B681B682E
:103848009A683C4B1340002B0DD07B68DB6D43F02E
:1038580010027B68DA657B681B6E43F001027B68A7
:103868001A66012362E07B681B681846FFF7B4F804
:103878007B681B68B3F1A04F04D07B681B682E4A95
:10388800934201D12D4B00E02D4B1846FEF70EFF59
:10389800034603F40003002B13D02A4B1B689B0933
:1038A800294AA2FB03239B095A1C13465B001344B5
:1038B8009B00BB6002E0BB68013BBB60BB68002BA0
:1038C800F9D1FEF79FFEF86028E07B681B68184670
:1038D800FFF796F80346002B04D17B681B6818464F
:1038E800FFF77AF8FEF78EFE0246FB68D31A022B22
:1038F80014D97B681B681B6803F00103012B0DD0EA
:103908007B68DB6D43F010027B68DA657B681B6EB1
:1039180043F001027B681A66012307E07B681B6895
:103928001B6803F00103012BCFD100231846103781
:10393800BD4680BD3F0000800001005000030050DC
:103948000007005008000020632D3E0580B584B0B4
:1039580000AF78607B689B6AFB60FB68DB6D03F0F7
:103968005003002B4BD1FB68DB6D43F40072FB68FE
:10397800DA65FB681B681B6803F00803002B21D07D
:10398800FB681B681846FEF73DFF0346002B32D044
:10399800FB681B68DB6803F40053002B2BD1FB6822
:1039A800DB6D23F48072FB68DA65FB68DB6D03F47A
:1039B8008053002B1FD1FB68DB6D43F00102FB68CD
:1039C800DA6518E0FB681B68DB6803F00203002B6C
:1039D80011D1FB68DB6D23F48072FB68DA65FB6844
:1039E800DB6D03F48053002B05D1FB68DB6D43F0DE
:1039F8000102FB68DA65F868FFF7C8FA0EE0FB68B1
:103A0800DB6D03F01003002B03D0F868FFF7D2FA40
:103A180004E0FB685B6D5B6B7868984700BF103704
:103A2800BD4680BD80B584B000AF78607B689B6A76
:103A3800FB60F868FFF7B4FA00BF1037BD4680BDD9
:103A480080B584B000AF78607B689B6AFB60FB68D8
:103A5800DB6D43F04002FB68DA65FB681B6E43F0E0
:103A68000402FB681A66F868FFF7A4FA00BF10376B
:103A7800BD4680BD80B483B000AF78607B689B682A
:103A880003F00103012B01D1012300E000231846B4
:103A98000C37BD465DF8047B704780B483B000AF37
:103AA80078607B689B6803F00403042B01D1012331
:103AB80000E0002318460C37BD465DF8047B7047CC
:103AC80090B5A1B000AF78603960002387F87F30E7
:103AD8007B6893F85830012B01D10223CBE07B6837
:103AE800012283F8582000237B660023BB667B688D
:103AF8001B68B3F1A04F02D1614BBB6001E000230A
:103B0800BB60BB68002B0BD17B68DB6D43F02002E8
:103B18007B68DA657B68002283F858200123AAE0D5
:103B2800BB681846FFF7B9FFB8677B681B6818467B
:103B3800FFF7B3FF0346002B40F08C80BB6F002BD0
:103B480040F088807B681B68B3F1A04F04D07B6885
:103B58001B684B4A934201D14A4B00E04A4B7B67B2
:103B68003B681B68002B41D07B6F9B6823F4604245
:103B78003B6859687B6893F838305B030B431A43FA
:103B88007B6F9A607B681B68B3F1A04F04D07B6899
:103B98001B683B4A93420FD14FF0A040FFF76AFFE2
:103BA80004463748FFF766FF03462343002B0CBF44
:103BB80001230023DBB208E03448FFF75BFF03462C
:103BC800002B0CBF01230023DBB2002B4CD07B6FF2
:103BD8009B6823F4716323F00F033A6811683A680D
:103BE80092680A431A437B6F9A603DE07B6F9B683B
:103BF80023F460427B6F9A607B681B68B3F1A04F27
:103C080004D07B681B681E4A93420FD14FF0A04036
:103C1800FFF730FF04461A48FFF72CFF03462343FB
:103C2800002B0CBF01230023DBB208E01748FFF785
:103C380021FF0346002B0CBF01230023DBB2002B1E
:103C480012D07B6F9B6823F4716323F00F037A6FA4
:103C5800936009E07B68DB6D43F020027B68DA65DE
:103C6800012387F87F3000E000BF7B68002283F8DB
:103C7800582097F87F3018468437BD4690BD00BF5E
:103C880000010050000300500007005000040050DD
:103C980080B485B000AF78607B6803F00703FB60F1
:103CA8000C4BDB68BB60BA684FF6FF031340BB6080
:103CB800FB681A02BB68134343F0BF6343F4003345
:103CC800BB60044ABB68D36000BF1437BD465DF8CB
:103CD800047B704700ED00E080B400AF044BDB6864
:103CE8001B0A03F007031846BD465DF8047B7047BE
:103CF80000ED00E080B483B000AF0346FB7197F994
:103D08000730002B0BDBFB7903F01F02074997F9FB
:103D180007305B09012000FA02F241F8232000BFB6
:103D28000C37BD465DF8047B704700BF00E100E03A
:103D380080B483B000AF03463960FB7197F9073050
:103D4800002B0ADB3B68DAB20C4997F907301201FD
:103D5800D2B20B4483F800230AE03B68DAB2084980
:103D6800FB7903F00F03043B1201D2B20B441A761D
:103D780000BF0C37BD465DF8047B704700E100E0EA
:103D880000ED00E080B489B000AFF860B9607A60F7
:103D9800FB6803F00703FB61FB69C3F10703042B0E
:103DA80028BF0423BB61FB690433062B02D9FB69D6
:103DB800033B00E000237B614FF0FF32BB6902FA4E
:103DC80003F3DA43BB681A407B699A404FF0FF312E
:103DD8007B6901FA03F3D9437B680B401343184608
:103DE8002437BD465DF8047B7047000080B582B07B
:103DF80000AF78607B68013BB3F1807F01D301237A
:103E08000FE00A4A7B68013B53600F214FF0FF30F7
:103E1800FFF78EFF054B00229A60044B07221A60B9
:103E2800002318460837BD4680BD00BF10E000E0FB
:103E380080B582B000AF78607868FFF729FF00BFCF
:103E48000837BD4680BD80B586B000AF0346B9606F
:103E58007A60FB73FFF740FF78617A68B968786920
:103E6800FFF790FF024697F90F3011461846FFF703
:103E78005FFF00BF1837BD4680BD80B582B000AF78
:103E88000346FB7197F907301846FFF733FF00BF69
:103E98000837BD4680BD80B582B000AF78607868CD
:103EA800FFF7A4FF034618460837BD4680BD00004B
:103EB80080B584B000AF78607B68002B01D1012306
:103EC8008DE07B681B681A46474B9A420FD87B687F
:103ED8001B681A46454B1344454AA2FB03231B099A
:103EE8009A007B685A647B68424A1A640EE07B68D1
:103EF8001B681A46404B13443D4AA2FB03231B0987
:103F08009A007B685A647B683C4A1A647B68022280
:103F180083F825207B681B681B68FB60FB6823F41B
:103F2800FF4323F07003FB607B689A687B68DB685B
:103F38001A437B681B691A437B685B691A437B6871
:103F48009B691A437B68DB691A437B681B6A1343C6
:103F5800FA681343FB607B681B68FA681A60786824
:103F680000F02CFA7B689B68B3F5804F02D17B6820
:103F780000225A607B685A687B689B6CD2B21A60D0
:103F88007B68DB6C7A68126D5A607B685B68002B13
:103F980010D07B685B68042B0CD8786800F04CFA6A
:103FA8007B685B6D00221A607B689B6D7A68D26DB6
:103FB8005A6008E07B6800225A657B6800229A658F
:103FC8007B680022DA657B680022DA637B6801225D
:103FD80083F825207B68002283F8242000231846D4
:103FE8001037BD4680BD00BF07040240F8FFFDBF83
:103FF800CDCCCCCC00000240F8FBFDBF0004024051
:1040080080B586B000AFF860B9607A603B60002385
:10401800FB75FB6893F82430012B01D1022366E07D
:10402800FB68012283F82420FB6893F82530DBB273
:10403800012B55D1FB68022283F82520FB6800225A
:10404800DA63FB681B681A68FB681B6822F00102C8
:104058001A603B687A68B968F86800F070F9FB681C
:104068001B6B002B08D0FB681B681A68FB681B6871
:1040780042F00E021A600FE0FB681B681A68FB68C2
:104088001B6822F004021A60FB681B681A68FB6848
:104098001B6842F00A021A60FB689B6C1B6803F4F9
:1040A8008033002B07D0FB689B6C1A68FB689B6CFD
:1040B80042F480721A60FB685B6D002B07D0FB68C6
:1040C8005B6D1A68FB685B6D42F480721A60FB686E
:1040D8001B681A68FB681B6842F001021A6005E059
:1040E800FB68002283F824200223FB75FB7D184619
:1040F8001837BD4680BD80B584B000AF7860002316
:10410800FB737B6893F82530DBB2022B0DD07B68FC
:104118000422DA637B68012283F825207B68002269
:1041280083F824200123FB7347E07B681B681A6827
:104138007B681B6822F00E021A607B681B681A688D
:104148007B681B6822F001021A607B689B6C1A6806
:104158007B689B6C22F480721A607B685B6C03F04E
:104168001F027B681B6C012101FA02F25A607B680E
:10417800DB6C7A68126D5A607B685B6D002B0CD023
:104188007B685B6D1A687B685B6D22F480721A60CD
:104198007B689B6D7A68D26D5A607B68012283F8D0
:1041A80025207B68002283F824207B689B6B002BEA
:1041B80003D07B689B6B78689847FB7B1846103761
:1041C800BD4680BD80B584B000AF78607B681B6C4D
:1041D8001B68FB607B681B681B68BB607B685B6C4B
:1041E80003F01F0304229A40FB681340002B26D0DB
:1041F800BB6803F00403002B21D07B681B681B6895
:1042080003F02003002B07D17B681B681A687B68C2
:104218001B6822F004021A607B685B6C03F01F02C3
:104228007B681B6C042101FA02F25A607B681B6BE5
:10423800002B71D07B681B6B786898476CE07B68B3
:104248005B6C03F01F0302229A40FB681340002BAB
:104258002ED0BB6803F00203002B29D07B681B68B3
:104268001B6803F02003002B0BD17B681B681A68BE
:104278007B681B6822F00A021A607B68012283F8B7
:1042880025207B685B6C03F01F027B681B6C022196
:1042980001FA02F25A607B68002283F824207B68C6
:1042A800DB6A002B38D07B68DB6A7868984733E094
:1042B8007B685B6C03F01F0308229A40FB6813407D
:1042C800002B2AD0BB6803F00803002B25D07B689D
:1042D8001B681A687B681B6822F00E021A607B68EC
:1042E8005B6C03F01F027B681B6C012101FA02F270
:1042F8005A607B680122DA637B68012283F82520F3
:104308007B68002283F824207B685B6B002B04D039
:104318007B685B6B7868984700BF00BF1037BD4665
:1043280080BD80B483B000AF78607B6893F8253097
:10433800DBB218460C37BD465DF8047B704780B485
:1043480085B000AFF860B9607A603B60FB68DB6CF1
:10435800FA68126D5A60FB685B6D002B04D0FB682D
:104368009B6DFA68D26D5A60FB685B6C03F01F02A4
:10437800FB681B6C012101FA02F25A60FB681B689A
:104388003A685A60FB689B68102B08D1FB681B6869
:104398007A689A60FB681B68BA68DA6007E0FB68AD
:1043A8001B68BA689A60FB681B687A68DA6000BFA5
:1043B8001437BD465DF8047B7047000080B487B0B1
:1043C80000AF78607B681B681A46164B9A4202D881
:1043D800154B7B6101E0154B7B617B693B617B6819
:1043E8001B68DBB2083B124AA2FB03231B09FB60D4
:1043F8007B685B6C9B089A003B6913441A467B6890
:104408009A647B680B4ADA64FB6803F01F03012295
:104418009A407B681A6500BF1C37BD465DF8047B6F
:10442800704700BF0704024000080240200802400D
:10443800CDCCCCCC8008024080B485B000AF786089
:104448007B685B68DBB2FB60FA680B4B13449B002C
:104458001A467B685A657B68084A9A65FB68013B7F
:1044680003F01F0301229A407B68DA6500BF143706
:10447800BD465DF8047B70473F820010400902404A
:1044880080B487B000AF7860396000237B615AE15F
:104498003B681A6801217B6901FA03F31340FB604A
:1044A800FB68002B00F04C813B685B6803F003035A
:1044B800012B05D03B685B6803F00303022B30D166
:1044C8007B689B683B617B695B00032202FA03F30C
:1044D800DB433A6913403B613B68DA687B695B0000
:1044E80002FA03F33A6913433B617B683A699A60BD
:1044F8007B685B683B6101227B6902FA03F3DB435B
:104508003A6913403B613B685B681B0903F0010291
:104518007B6902FA03F33A6913433B617B683A69A2
:104528005A603B685B6803F00303032B17D07B6872
:10453800DB683B617B695B00032202FA03F3DB4320
:104548003A6913403B613B689A687B695B0002FAF1
:1045580003F33A6913433B617B683A69DA603B6865
:104568005B6803F00303022B23D17B69DA087B68BD
:10457800083253F822303B617B6903F007039B0044
:104588000F2202FA03F3DB433A6913403B613B68AD
:104598001A697B6903F007039B0002FA03F33A697F
:1045A80013433B617B69DA087B680832396943F851
:1045B80022107B681B683B617B695B00032202FA5F
:1045C80003F3DB433A6913403B613B685B6803F0E4
:1045D80003027B695B0002FA03F33A6913433B6108
:1045E8007B683A691A603B685B6803F44033002BC8
:1045F80000F0A6805B4B1B6E5A4A43F0010313661A
:10460800584B1B6E03F00103BB60BB68564A7B69BD
:104618009B08023352F823303B617B6903F00303A4
:104628009B000F2202FA03F3DB433A6913403B6114
:104638007B68B3F1904F1FD07B684C4A934219D0E6
:104648007B684B4A934213D07B684A4A93420DD009
:104658007B68494A934207D07B68484A934201D114
:1046680005230AE0062308E0042306E0032304E008
:10467800022302E0012300E000237A6902F003022A
:10468800920093403A6913433B6137497B699B0821
:1046980002333A6941F82320394B9B683B61FB6838
:1046A800DB433A6913403B613B685B6803F4801362
:1046B800002B03D03A69FB6813433B61304A3B69DE
:1046C80093602F4BDB683B61FB68DB433A6913401F
:1046D8003B613B685B6803F40013002B03D03A6925
:1046E800FB6813433B61264A3B69D360244B5B68F4
:1046F8003B61FB68DB433A6913403B613B685B689D
:1047080003F40033002B03D03A69FB6813433B6181
:104718001B4A3B6953601A4B1B683B61FB68DB43D0
:104728003A6913403B613B685B6803F48033002BB4
:1047380003D03A69FB6813433B61114A3B69136034
:104748007B6901337B613B681A687B6922FA03F352
:10475800002B7FF49DAE00BF00BF1C37BD465DF83F
:10476800047B70470010024000000140000400482C
:1047780000080048000C00480010004800140048D9
:104788000004014080B483B000AF78600B467B80A2
:1047980013467B707B78002B03D07A887B689A61FC
:1047A80002E07A887B689A6200BF0C37BD465DF8E4
:1047B800047B704780B582B000AF0346FB80084B8E
:1047C8005A69FB881340002B06D0054AFB885361C1
:1047D800FB881846FCF792FA00BF0837BD4680BD33
:1047E8000004014080B582B000AF78607B68002B80
:1047F80001D101238DE07B6893F84130DBB2002BB7
:1048080006D17B68002283F840207868FDF7B4FC65
:104818007B68242283F841207B681B681A687B68C0
:104828001B6822F001021A607B685A687B681B6863
:1048380022F070621A617B681B689A687B681B6843
:1048480022F400429A607B68DB68012B07D17B6801
:104858009A687B681B6842F400429A6006E07B68AD
:104868009A687B681B6842F404429A607B68DB683C
:10487800022B08D17B681B685A687B681B6842F466
:1048880000625A6007E07B681B685A687B681B688F
:1048980022F400625A607B681B685B687A68126859
:1048A80043F0007343F4004353607B681B68DA6885
:1048B8007B681B6822F40042DA607B681A697B68AF
:1048C8005B6942EA03017B689B691A027B681B6883
:1048D8000A43DA607B68D9697B681A6A7B681B6857
:1048E8000A431A607B681B681A687B681B6842F079
:1048F80001021A607B6800225A647B68202283F8D0
:1049080041207B6800221A637B68002283F84220DA
:10491800002318460837BD4680BD000080B586B024
:1049280000AFF860B9603B601346FB80FB6893F802
:104938004130DBB203F02803282B40F09880BB6895
:10494800002B02D0FB88002B05D1FB684FF40072C6
:104958005A6401238CE048F20101F86801F0D0FBA9
:10496800FB6893F84030012B01D1022380E0FB68FB
:10497800012283F84020FB6893F84130DBB22A2BF0
:104988002AD10221F86801F0BBFBFB681B681B6891
:1049980003F40043B3F5004F1ED1FB681B681A6887
:1049A800FB681B6822F400421A60FB68DB6B002B73
:1049B80012D0FB68DB6B304A9A63FB68DB6B1846E6
:1049C800FFF799FB0346002B06D0FB68DB6B9B6B5C
:1049D800FA68D26B10469847FB68292283F8412071
:1049E800FB68202283F84220FB6800225A64FB6897
:1049F8001B685A68FB681B6822F400425A60FB680F
:104A0800BA685A62FB68FA885A85FB685B8D9AB265
:104A1800FB681A85FB683A68DA62FB68174A5A63CA
:104A2800FB681B689B6903F00803082B0CBF012374
:104A38000023DBB2FB75FB681B689B691B0CDBB2B0
:104A480003F00103DBB2012B06D1FB7D002B03D061
:104A5800FB681B680822DA61FB68002283F84020A3
:104A680048F20101F86801F0C7FA002300E00123C9
:104A780018461837BD4680BD5F5F0008874D00089F
:104A880080B586B000AFF860B9603B601346FB8024
:104A9800FB6893F84130DBB203F02803282B40F081
:104AA8009880BB68002B02D0FB88002B05D1FB68DF
:104AB8004FF400725A6401238CE048F20201F8684E
:104AC80001F01EFBFB6893F84030012B01D1022353
:104AD80080E0FB68012283F84020FB6893F84130AE
:104AE800DBB2292B2AD10121F86801F009FBFB6808
:104AF8001B681B6803F48043B3F5804F1ED1FB6825
:104B08001B681A68FB681B6822F480421A60FB68FD
:104B18009B6B002B12D0FB689B6B304A9A63FB6837
:104B28009B6B1846FFF7E7FA0346002B06D0FB6895
:104B38009B6B9B6BFA68926B10469847FB682A221E
:104B480083F84120FB68202283F84220FB6800227A
:104B58005A64FB681B685A68FB681B6822F40042A9
:104B68005A60FB68BA685A62FB68FA885A85FB681B
:104B78005B8D9AB2FB681A85FB683A68DA62FB6853
:104B8800174A5A63FB681B689B6903F00803082BE4
:104B98000CBF01230023DBB2FB75FB681B689B6914
:104BA8001B0CDBB203F00103DBB2002B06D1FB7D4B
:104BB800002B03D0FB681B680822DA61FB6800221F
:104BC80083F8402048F20201F86801F015FA002342
:104BD80000E0012318461837BD4680BD5F5F000816
:104BE800874D000880B582B000AF78607B6893F885
:104BF8004130DBB2202B0DD17B68282283F841207D
:104C08007B68074A5A634FF40041786801F0F4F969
:104C1800002300E0022318460837BD4680BD00BFC8
:104C2800874D000880B584B000AF78607B681B684A
:104C38009B69FB607B681B681B68BB607B685B6B60
:104C4800002B05D07B685B6BBA68F9687868984771
:104C580000BF1037BD4680BD80B586B000AF786014
:104C68007B681B689B697B617B681B681B683B6171
:104C78007B691B0A03F00103002B10D03B69DB0999
:104C880003F00103002B0AD07B685B6C43F0010240
:104C98007B685A647B681B684FF48072DA617B69B1
:104CA8009B0A03F00103002B10D03B69DB0903F0DA
:104CB8000103002B0AD07B685B6C43F008027B6819
:104CC8005A647B681B684FF48062DA617B695B0A0F
:104CD80003F00103002B10D03B69DB0903F001034B
:104CE800002B0AD07B685B6C43F002027B685A6435
:104CF8007B681B684FF40072DA617B685B6CFB6051
:104D0800FB6803F00B03002B03D0F968786800F008
:104D1800E7FF00BF1837BD4680BD80B483B000AF41
:104D2800786000BF0C37BD465DF8047B704780B4DF
:104D380083B000AF786000BF0C37BD465DF8047BD8
:104D4800704780B483B000AF786000BF0C37BD46B1
:104D58005DF8047B704780B483B000AF786000BF13
:104D68000C37BD465DF8047B704780B483B000AF54
:104D7800786000BF0C37BD465DF8047B704780B58E
:104D880086B000AFF860B9607A60FB68DB6A7B6167
:104D9800BB683B61FB6893F84030012B01D10223CB
:104DA800EDE0FB68012283F840203B695B0903F0D2
:104DB8000103002B0AD07B685B0903F00103002B79
:104DC80004D03969F86800F0CBFDD3E03B691B09D2
:104DD80003F00103002B4DD07B681B0903F001038E
:104DE800002B47D0FB685B8D9BB2002B28D1FB685A
:104DF80093F84130DBB2282B08D17B69B3F1007FEF
:104E080004D13969F86800F015FF32E0FB6893F8BF
:104E18004130DBB2292B0ED17B6913F5803F0AD0D4
:104E2800FB681B681022DA61F86801F070F8F8680E
:104E380000F06EFC1DE0FB681B681022DA6196E04A
:104E4800FB681B681022DA61FB685B6C43F00402A4
:104E5800FB685A647B69002B04D07B69B3F1807FBF
:104E680040F08580FB685B6C1946F86800F038FFF5
:104E78007DE07CE03B699B0803F00103002B30D008
:104E88007B689B0803F00103002B2AD0FB685B8D2D
:104E98009BB2002B18D0FB681B685A6AFB685B6AD8
:104EA800D2B21A70FB685B6A5A1CFB685A62FB68CC
:104EB8001B8D013B9AB2FB681A85FB685B8D9BB220
:104EC800013B9AB2FB685A85FB685B8D9BB2002B4D
:104ED8004FD17B6913F5803F4BD0F86800F018FC80
:104EE80047E03B69DB0803F00103002B0AD07B682D
:104EF800DB0803F00103002B04D03969F86800F0DF
:104F080046FB37E03B695B0803F00103002B31D017
:104F18007B685B0803F00103002B2BD0FB685B8DDB
:104F28009BB2002B18D0FB685B6A1A78FB681B6879
:104F38009A62FB685B6A5A1CFB685A62FB685B8D65
:104F48009BB2013B9AB2FB685A85FB681B8D013BFB
:104F58009AB2FB681A850DE07B69B3F1807F02D0B5
:104F68007B69002B06D1F86800F0D2FB02E000BF95
:104F780000E000BFFB68002283F8402000231846A9
:104F88001837BD4680BD80B588B002AFF860B960FB
:104F98007A60FB6893F84030012B01D10223E1E0ED
:104FA800FB68012283F84020BB681B0903F001035A
:104FB800002B17D07B681B0903F00103002B11D0CD
:104FC800FB681B681022DA61FB685B6C43F0040223
:104FD800FB685A642021F86801F00EF8F86800F0C0
:104FE80096FFBAE0BB68DB0903F00103002B72D01F
:104FF8007B689B0903F00103002B6CD0FB681B68DE
:105008001A68FB681B6822F040021A60FB685B8D17
:105018009BB2002B4ED0FB681B685B689BB2C3F346
:1050280009037B82FB685B8D9BB2FF2B06D9FB686B
:10503800FF221A854FF080737B6110E0FB685B8D5F
:105048009AB2FB681A85FB68DB6A13F5803F03D0C8
:10505800FB68DB6A7B6102E04FF000737B61FB68F1
:105068001B8DDAB2798A002300937B69F86800F017
:1050780091FFFB685B8D9AB2FB681B8DD31A9AB2BD
:10508800FB685A85FB6893F84130DBB2222B08D1C4
:10509800FB681B681A68FB681B6842F400421A60C8
:1050A8005BE0FB681B681A68FB681B6842F4804277
:1050B8001A6052E0FB681B685B6803F00073B3F189
:1050C800007F03D0F86800F0E6FA46E04021F8686F
:1050D80000F006FE41E0BB689B0903F00103002BCA
:1050E80029D07B689B0903F00103002B23D0FB68C0
:1050F8005B8D9BB2002B19D1FB681B685B6803F0C2
:105108000073B3F1007F27D0FB68DB6A13F5803F9B
:1051180008D1FB681B685A68FB681B6842F4804228
:105128005A6019E0F86800F0B6FA15E04021F8680E
:1051380000F0D6FD10E0BB685B0903F00103002B0B
:105148000BD07B685B0903F00103002B05D0B9681D
:10515800F86800F03BFB00E000BFFB68002283F822
:105168004020002318461837BD4680BD80B588B05A
:1051780002AFF860B9607A60924B7B61FB6893F884
:105188004030012B01D1022318E1FB68012283F88A
:105198004020BB681B0903F00103002B17D07B6874
:1051A8001B0903F00103002B11D0FB681B681022B8
:1051B800DA61FB685B6C43F00402FB685A642021E7
:1051C800F86800F019FFF86800F0A1FEF1E0BB688C
:1051D8005B0803F00103002B0FD07B685B0803F02A
:1051E8000103002B09D0FB681B68FA68126D9A62EC
:1051F800FB684FF0FF321A65DBE0BB68DB0903F0A0
:105208000103002B60D07B689B0903F00103002B8E
:105218005AD00121F86800F073FF1021F86800F0F7
:10522800EBFEFB685B8D9BB2002B48D0FB685B8D67
:105238009BB2FF2B10D9FB68FF221A85FB68DB6C39
:1052480099B2FB681B8DDAB2002300934FF080738C
:10525800F86800F09FFE11E0FB685B8D9AB2FB686E
:105268001A85FB68DB6C99B2FB681B8DDAB20023E8
:1052780000934FF00073F86800F08CFEFB685B8DBC
:105288009AB2FB681B8DD31A9AB2FB685A85FB68E1
:1052980093F84130DBB2222B08D1FB681B681A68EF
:1052A800FB681B6842F400421A6082E0FB681B68D6
:1052B8001A68FB681B6842F480421A6079E0402152
:1052C800F86800F00DFD74E0BB689B0903F001036A
:1052D800002B5ED07B689B0903F00103002B58D09C
:1052E8000121F86800F00CFF1021F86800F084FE36
:1052F800FB6893F84130DBB2222B01D1324B7B6142
:10530800FB685B8D9BB2FF2B10D9FB68FF221A85C7
:10531800FB68DB6C99B2FB681B8DDAB27B69009382
:105328004FF08073F86800F035FE11E0FB685B8D84
:105338009AB2FB681A85FB68DB6C99B2FB681B8D17
:10534800DAB27B6900934FF00073F86800F022FE30
:10535800FB685B8D9AB2FB681B8DD31A9AB2FB6807
:105368005A85FB6893F84130DBB2222B08D1FB68E1
:105378001B681A68FB681B6842F400421A6018E050
:10538800FB681B681A68FB681B6842F480421A6055
:105398000FE0BB685B0903F00103002B09D07B68B1
:1053A8005B0903F00103002B03D0B968F86800F02B
:1053B8000DFAFB68002283F84020002318461837AE
:1053C800BD4680BD002000800024008080B588B0E4
:1053D80000AFF860B9607A60FB68DB6ABB610023E4
:1053E800FB61FB6893F84030012B01D10223CAE02E
:1053F800FB68012283F84020BB685B0903F00103C6
:10540800002B0AD07B685B0903F00103002B04D052
:10541800B968F86800F0A4FAB0E0BB681B0903F0AB
:105428000103002B00F09A807B681B0903F001033D
:10543800002B00F093807B689B0B03F00103002B8B
:1054480005D17B68DB0B03F00103002B7FD0FB68E1
:10545800DB6B002B0DD07B68DB0B03F00103002B0B
:1054680007D0FB68DB6B1B685B68002B01D101234D
:10547800FB61FB689B6B002B0DD07B689B0B03F0DB
:105488000103002B07D0FB689B6B1B685B68002B34
:1054980001D10123FB61FB69012B28D1FB6893F83B
:1054A8004130DBB2282B08D1BB69B3F1007F04D1AE
:1054B800B968F86800F0BEFB48E0FB6893F8413033
:1054C800DBB2292B0ED1BB6913F5803F0AD0FB68EC
:1054D8001B681022DA61F86800F019FDF86800F01E
:1054E80017F933E0FB681B681022DA6134E0FB68C7
:1054F8001B681022DA61FB685B6C43F00402FB68EE
:105508005A64FB6893F84130FB75BB69002B03D0E4
:10551800BB69B3F1807F1FD1FB7D212B02D0FB7DBE
:10552800292B03D1FB6821221A6308E0FB7D222B7B
:1055380002D0FB7D2A2B02D1FB6822221A63FB686A
:105548005B6C1946F86800F0CBFB05E004E0FB68EB
:105558001B681022DA6111E000BF0FE0BB68DB08AE
:1055680003F00103002B09D07B68DB0803F001037B
:10557800002B03D0B968F86800F009F8FB6800222E
:1055880083F84020002318462037BD4680BD80B5EB
:1055980084B000AF786039607B6893F84130DBB243
:1055A80003F02803282B6AD17B681B689B691B0CB6
:1055B800DBB203F00103FB737B681B689B691B0C60
:1055C8009BB203F0FE03BB817B681B689B689BB2A0
:1055D800C3F309037B817B681B68DB689BB203F01C
:1055E800FE033B817B68DB68022B38D17B89DB09B2
:1055F8009AB2BB8953409BB203F00603002B1CD11F
:105608007B89BB817B689B6C5A1C7B689A647B682E
:105618009B6C022B3BD17B6800229A647B681B68D9
:105628000822DA617B68002283F84020BA89FB7B74
:1056380019467868FAF7F8FD29E03B89BB814FF4F1
:105648000041786800F05CFD7B68002283F8402008
:10565800BA89FB7B19467868FAF7E6FD17E04FF43C
:105668000041786800F04CFD7B68002283F84020F8
:10567800BA89FB7B19467868FAF7D6FD07E07B689C
:105688001B680822DA617B68002283F8402000BF8B
:105698001037BD4680BD80B582B000AF78607B68AA
:1056A800002283F842207B6893F84130DBB2212B3B
:1056B80015D17B68202283F841207B6811221A6368
:1056C8007B6800225A630121786800F019FD7B6825
:1056D800002283F840207868FFF71FFB14E07B68FE
:1056E800202283F841207B6812221A637B680022FB
:1056F8005A630221786800F003FD7B68002283F872
:1057080040207868FFF713FB00BF0837BD4680BD0F
:1057180080B584B000AF78607B681B681B68FB604D
:105728007B68002283F84220FB689B0B03F001038F
:10573800002B08D07B681B681A687B681B6822F4FA
:1057480080421A600DE0FB68DB0B03F00103002BBD
:1057580007D07B681B681A687B681B6822F40042C4
:105768001A607B6893F84130DBB2292B12D17B6831
:10577800282283F841207B6821221A630121786856
:1057880000F0BEFC7B68002283F840207868FBF7B5
:105798003BF817E07B6893F84130DBB22A2B11D134
:1057A8007B68282283F841207B6822221A63022121
:1057B800786800F0A5FC7B68002283F840207868B0
:1057C800FBF734F800BF1037BD4680BD80B586B002
:1057D80000AF786039603B687B617B681B6820227A
:1057E800DA617B6893F84130DBB2212B07D10121C4
:1057F800786800F085FC7B6811221A630CE07B68EE
:1058080093F84130DBB2222B06D10221786800F0F0
:1058180077FC7B6812221A637B681B6859687B686F
:105828001A684D4B0B4053607B6800225A637B68B3
:105838004A4ADA627B691B0903F00103002B09D08D
:105848007B681B681022DA617B685B6C43F004029A
:105858007B685A647B6893F84130DBB2602B0BD1CC
:105868007B699B0803F00103002B05D07B681B684C
:105878005B6ADBB2FB60FB68786800F048FB7B681A
:105888005B6C3B617B6893F84130DBB2602B02D0E4
:105898003B69002B06D07B685B6C1946786800F082
:1058A8001FFA54E07B6893F84130DBB2212B24D1F6
:1058B8007B68202283F841207B6800221A637B687A
:1058C80093F84230DBB2402B0BD17B68002283F87F
:1058D80042207B68002283F840207868FFF731FA7D
:1058E80035E07B68002283F842207B68002283F839
:1058F80040207868FFF711FA29E07B6893F8413077
:10590800DBB2222B23D17B68202283F841207B68DD
:1059180000221A637B6893F84230DBB2402B0BD12C
:105928007B68002283F842207B68002283F84020AD
:105938007868FFF710FA0AE07B68002283F84220B3
:105948007B68002283F840207868FFF7F0F900BFF1
:105958001837BD4680BD00BF00E800FE0000FFFF0D
:1059680080B586B000AF786039607B681B681B68BB
:105978003B613B687B617B68DB6AFB607B6893F813
:105988004130FB727B681B682022DA61FB7A212B8D
:1059980002D0FB7A292B08D148F20101786800F07F
:1059A800AFFB7B6821221A6319E0FB7A222B02D015
:1059B800FB7A2A2B08D148F20201786800F0A0FB94
:1059C8007B6822221A630AE0FB7A282B07D148F267
:1059D8000301786800F094FB7B6800221A637B68F7
:1059E8001B685A687B681B6842F400425A607B68EF
:1059F8001B6859687B681A688C4B0B405360786841
:105A080000F085FA3B699B0B03F00103002B13D0D0
:105A18007B681B681A687B681B6822F480421A60DE
:105A28007B689B6B002B20D07B689B6B1B685B683B
:105A38009AB27B685A8518E03B69DB0B03F00103D7
:105A4800002B12D07B681B681A687B681B6822F4DD
:105A580000421A607B68DB6B002B06D07B68DB6B2F
:105A68001B685B689AB27B685A857B699B0803F060
:105A78000103002B20D07B6923F004037B617B6842
:105A88001B685A6A7B685B6AD2B21A707B685B6A69
:105A98005A1C7B685A627B681B8D002B0CD07B6874
:105AA8001B8D013B9AB27B681A857B685B8D9BB224
:105AB800013B9AB27B685A857B685B8D9BB2002B51
:105AC80005D07B685B6C43F004027B685A647B6991
